{
  "contractName": "RealEstateToken",
  "abi": [
    {
      "inputs": [
        {
          "internalType": "uint256",
          "name": "_initialSupply",
          "type": "uint256"
        }
      ],
      "stateMutability": "nonpayable",
      "type": "constructor"
    },
    {
      "inputs": [
        {
          "internalType": "address",
          "name": "",
          "type": "address"
        }
      ],
      "name": "balanceOf",
      "outputs": [
        {
          "internalType": "uint256",
          "name": "",
          "type": "uint256"
        }
      ],
      "stateMutability": "view",
      "type": "function",
      "constant": true
    },
    {
      "inputs": [],
      "name": "decimals",
      "outputs": [
        {
          "internalType": "uint8",
          "name": "",
          "type": "uint8"
        }
      ],
      "stateMutability": "view",
      "type": "function",
      "constant": true
    },
    {
      "inputs": [],
      "name": "name",
      "outputs": [
        {
          "internalType": "string",
          "name": "",
          "type": "string"
        }
      ],
      "stateMutability": "view",
      "type": "function",
      "constant": true
    },
    {
      "inputs": [],
      "name": "symbol",
      "outputs": [
        {
          "internalType": "string",
          "name": "",
          "type": "string"
        }
      ],
      "stateMutability": "view",
      "type": "function",
      "constant": true
    },
    {
      "inputs": [],
      "name": "totalSupply",
      "outputs": [
        {
          "internalType": "uint256",
          "name": "",
          "type": "uint256"
        }
      ],
      "stateMutability": "view",
      "type": "function",
      "constant": true
    }
  ],
  "bytecode": "0x60806040526040518060400160405280601181526020017f5265616c2045737461746520546f6b656e000000000000000000000000000000815250600090805190602001906200005192919062000170565b506040518060400160405280600381526020017f5245540000000000000000000000000000000000000000000000000000000000815250600190805190602001906200009f92919062000170565b506012600260006101000a81548160ff021916908360ff160217905550348015620000c957600080fd5b50604051620009c6380380620009c68339818101604052810190620000ef919062000237565b600260009054906101000a900460ff1660ff16600a620001109190620002be565b816200011d9190620003fb565b600381905550600354600460003373ffffffffffffffffffffffffffffffffffffffff1673ffffffffffffffffffffffffffffffffffffffff168152602001908152602001600020819055505062000521565b8280546200017e9062000466565b90600052602060002090601f016020900481019282620001a25760008555620001ee565b82601f10620001bd57805160ff1916838001178555620001ee565b82800160010185558215620001ee579182015b82811115620001ed578251825591602001919060010190620001d0565b5b509050620001fd919062000201565b5090565b5b808211156200021c57600081600090555060010162000202565b5090565b600081519050620002318162000507565b92915050565b6000602082840312156200024a57600080fd5b60006200025a8482850162000220565b91505092915050565b6000808291508390505b6001851115620002b5578086048111156200028d576200028c6200049c565b5b60018516156200029d5780820291505b8081029050620002ad85620004fa565b94506200026d565b94509492505050565b6000620002cb826200045c565b9150620002d8836200045c565b9250620003077fffffffffffffffffffffffffffffffffffffffffffffffffffffffffffffffff84846200030f565b905092915050565b600082620003215760019050620003f4565b81620003315760009050620003f4565b81600181146200034a576002811462000355576200038b565b6001915050620003f4565b60ff8411156200036a57620003696200049c565b5b8360020a9150848211156200038457620003836200049c565b5b50620003f4565b5060208310610133831016604e8410600b8410161715620003c55782820a905083811115620003bf57620003be6200049c565b5b620003f4565b620003d4848484600162000263565b92509050818404811115620003ee57620003ed6200049c565b5b81810290505b9392505050565b600062000408826200045c565b915062000415836200045c565b9250817fffffffffffffffffffffffffffffffffffffffffffffffffffffffffffffffff04831182151516156200045157620004506200049c565b5b828202905092915050565b6000819050919050565b600060028204905060018216806200047f57607f821691505b60208210811415620004965762000495620004cb565b5b50919050565b7f4e487b7100000000000000000000000000000000000000000000000000000000600052601160045260246000fd5b7f4e487b7100000000000000000000000000000000000000000000000000000000600052602260045260246000fd5b60008160011c9050919050565b62000512816200045c565b81146200051e57600080fd5b50565b61049580620005316000396000f3fe608060405234801561001057600080fd5b50600436106100575760003560e01c806306fdde031461005c57806318160ddd1461007a578063313ce5671461009857806370a08231146100b657806395d89b41146100e6575b600080fd5b610064610104565b60405161007191906102e6565b60405180910390f35b610082610192565b60405161008f9190610308565b60405180910390f35b6100a0610198565b6040516100ad9190610323565b60405180910390f35b6100d060048036038101906100cb9190610266565b6101ab565b6040516100dd9190610308565b60405180910390f35b6100ee6101c3565b6040516100fb91906102e6565b60405180910390f35b60008054610111906103d6565b80601f016020809104026020016040519081016040528092919081815260200182805461013d906103d6565b801561018a5780601f1061015f5761010080835404028352916020019161018a565b820191906000526020600020905b81548152906001019060200180831161016d57829003601f168201915b505050505081565b60035481565b600260009054906101000a900460ff1681565b60046020528060005260406000206000915090505481565b600180546101d0906103d6565b80601f01602080910402602001604051908101604052809291908181526020018280546101fc906103d6565b80156102495780601f1061021e57610100808354040283529160200191610249565b820191906000526020600020905b81548152906001019060200180831161022c57829003601f168201915b505050505081565b60008135905061026081610448565b92915050565b60006020828403121561027857600080fd5b600061028684828501610251565b91505092915050565b600061029a8261033e565b6102a48185610349565b93506102b48185602086016103a3565b6102bd81610437565b840191505092915050565b6102d18161038c565b82525050565b6102e081610396565b82525050565b60006020820190508181036000830152610300818461028f565b905092915050565b600060208201905061031d60008301846102c8565b92915050565b600060208201905061033860008301846102d7565b92915050565b600081519050919050565b600082825260208201905092915050565b60006103658261036c565b9050919050565b600073ffffffffffffffffffffffffffffffffffffffff82169050919050565b6000819050919050565b600060ff82169050919050565b60005b838110156103c15780820151818401526020810190506103a6565b838111156103d0576000848401525b50505050565b600060028204905060018216806103ee57607f821691505b6020821081141561040257610401610408565b5b50919050565b7f4e487b7100000000000000000000000000000000000000000000000000000000600052602260045260246000fd5b6000601f19601f8301169050919050565b6104518161035a565b811461045c57600080fd5b5056fea2646970667358221220141a8ebf6db299e1ed093713f3885f1483efb2365af630493510c1cf5fd9a51964736f6c63430008000033",
  "immutableReferences": {},
  "source": "pragma solidity ^0.8.0;\n\ncontract RealEstateToken {\n    string public name = \"Real Estate Token\";\n    string public symbol = \"RET\";\n    uint8 public decimals = 18;\n    uint256 public totalSupply;\n\n    mapping(address => uint256) public balanceOf;\n\n    constructor(uint256 _initialSupply) {\n        totalSupply = _initialSupply * 10 ** uint256(decimals);\n        balanceOf[msg.sender] = totalSupply;\n    }\n}\n",
  "sourcePath": "/Users/webdev/Desktop/blockchain-projects/real-estate-platform/blockchain/contracts/RealEstateToken.sol",
  "compiler": {
    "name": "solc",
    "version": "0.8.0+commit.c7dfd78e.Emscripten.clang"
  },
  "schemaVersion": "3.4.16",
  "updatedAt": "2024-07-24T18:30:35.912Z",
  "networkType": "ethereum",
  "devdoc": {
    "kind": "dev",
    "methods": {},
    "version": 1
  },
  "userdoc": {
    "kind": "user",
    "methods": {},
    "version": 1
  }
}